:020000040000FA
:1030000096EF28F09CEF28F0A2EF28F0B1EF28F01F
:10301000B2EF28F0B8EF28F0F4EF28F003EF29F032
:10302000E4EF28F0ECEF28F012EF29F0DCEF28F0C5
:10303000D6EF28F0BEEF28F0C9EF28F01CEF2EF0F5
:103040001DEF2EF01EEF2EF01FEF2EF0E3EF28F015
:10305000E2EF28F020EF2EF021EF2EF022EF2EF0FD
:103060001200000012000000120000001200000018
:103070001200000012000000120000001200000008
:10308000FFFFFFFFFFFFFFFFFFFFFFFFFFFFFFFF50
:10309000FFFFFFFFFFFFFFFFFFFFFFFFFFFFFFFF40
:1033000010C0EDFF11C0EDFF12C0EDFF13C0EDFFC7
:1033100014C0EDFF15C0EDFF000EED6E010E8EEC3A
:1033200025F0E92A000EED6E020E8EEC25F0E92A5A
:10333000FE0E0101106FFF0E116F01011151800F80
:10334000800F02E1150E105DD8B0ADEF21F0320E06
:10335000CEEC16F001011151800F810F02E1FF0E3A
:10336000105DD8A0A7EF21F001011151800F800F4F
:1033700002E1120E105DD8B0A7EF21F00101102973
:10338000106E16C0EDFF17C0EDFF176A1034173628
:10339000E8341736FC0B166E000EFB6E330EFA6E19
:1033A000B80E16261750FA22D8B0FB2A1650ECCFCA
:1033B00017F0ECCF16F0F96E02EF1AF023EF1AF0C7
:1033C00060EF1AF0BAEF1AF032EF1BF0AAEF1BF021
:1033D00022EF1CF09AEF1CF012EF1DF08BEF1DF0A6
:1033E00006EF1EF082EF1EF0FEEF1EF07AEF1FF0E8
:1033F000F5EF1FF070EF20F0EBEF20F048EF21F039
:1034000087EF21F001011051106E102AE00E1024F8
:10341000116E126A10BE1268000E122211C0E1FF76
:1034200012C0E2FF700EE76E116A10BE1168F00E56
:103430001026000E112210C0E1FF11C0E2FF700E35
:10344000E76EA7EF21F001011051106E102AE00E77
:103450001024116E126A10BE1268000E122211C0E2
:10346000E1FF12C0E2FF700EE76E10C111F011C152
:1034700012F0E00E1126000E122211C0E1FF12C060
:10348000E2FF600EE76E116A10BE1168F00E1026A2
:10349000000E112210C0E1FF11C0E2FF700EE76EB6
:1034A00010C110F011C111F0F00E1026000E112203
:1034B00010C0E1FF11C0E2FF600EE76EA7EF21F040
:1034C00001011051106E1028116EE00E1124126EC1
:1034D000136A11BE1368000E132212C0E1FF13C05D
:1034E000E2FF700EE76E10C112F011C113F0E00E92
:1034F0001226000E132212C0E1FF13C0E2FF600E7D
:10350000E76E1006E00E1024126E136A10BE1368E8
:10351000000E132212C0E1FF13C0E2FF400EE76E5F
:10352000126A11BE1268F00E1126000E122211C08E
:10353000E1FF12C0E2FF700EE76E10C111F011C181
:1035400012F0F00E1126000E122211C0E1FF12C07F
:10355000E2FF600EE76E116A10BE1168F00E1026D1
:10356000000E112210C0E1FF11C0E2FF400EE76E15
:10357000A7EF21F001011051106E1028116EE00E1E
:103580001124126E136A11BE1368000E132212C0AA
:10359000E1FF13C0E2FF700EE76E10C112F011C11F
:1035A00013F0E00E1226000E132212C0E1FF13C02A
:1035B000E2FF600EE76E1004126EE00E1224136E2E
:1035C000146A12BE1468000E142213C0E1FF14C066
:1035D000E2FF400EE76EFE0E1026E00E1024136E82
:1035E000146A10BE1468000E142213C0E1FF14C048
:1035F000E2FF000EE76E136A11BE1368F00E11268B
:10360000000E132211C0E1FF13C0E2FF700EE76E3F
:1036100010C111F011C113F0F00E1126000E13228B
:1036200011C0E1FF13C0E2FF600EE76E116A12BE27
:103630001168F00E1226000E112212C0E1FF11C017
:10364000E2FF400EE76E116A10BE1168F00E102600
:10365000000E112210C0E1FF11C0E2FF000EE76E64
:10366000A7EF21F001011051106E1028116EE00E2D
:103670001124126E136A11BE1368000E132212C0B9
:10368000E1FF13C0E2FF700EE76E10C112F011C12E
:1036900013F0E00E1226000E132212C0E1FF13C039
:1036A000E2FF600EE76E1004126EE00E1224136E3D
:1036B000146A12BE1468000E142213C0E1FF14C075
:1036C000E2FF400EE76EFE0E1026E00E1024136E91
:1036D000146A10BE1468000E142213C0E1FF14C057
:1036E000E2FF000EE76E136A11BE1368F00E11269A
:1036F000000E132211C0E1FF13C0E2FF700EE76E4F
:1037000010C111F011C113F0F00E1126000E13229A
:1037100011C0E1FF13C0E2FF600EE76E116A12BE36
:103720001168F00E1226000E112212C0E1FF11C026
:10373000E2FF400EE76E116A10BE1168F00E10260F
:10374000000E112210C0E1FF11C0E2FF000EE76E73
:10375000A7EF21F001011051106E1028116EE00E3C
:103760001124126E136A11BE1368000E132212C0C8
:10377000E1FF13C0E2FF700EE76E10C112F011C13D
:1037800013F0E00E1226000E132212C0E1FF13C048
:10379000E2FF600EE76E1004126EE00E1224136E4C
:1037A000146A12BE1468000E142213C0E1FF14C084
:1037B000E2FF400EE76EFE0E1026E00E1024136EA0
:1037C000146A10BE1468000E142213C0E1FF14C066
:1037D000E2FF000EE76E136A11BE1368F00E1126A9
:1037E000000E132211C0E1FF13C0E2FF700EE76E5E
:1037F00010C111F011C113F0F00E1126000E1322AA
:1038000011C0E1FF13C0E2FF600EE76E116A12BE45
:103810001168F00E1226000E112212C0E1FF11C035
:10382000E2FF400EE76E116A10BE1168F00E10261E
:10383000000E112210C0E1FF11C0E2FF000EE76E82
:10384000A7EF21F001011051106E1028116EE00E4B
:103850001124126E136A11BE1368000E132212C0D7
:10386000E1FF13C0E2FF700EE76E10C112F011C14C
:1038700013F0E00E1226000E132212C0E1FF13C057
:10388000E2FF600EE76E1004126EE00E1224136E5B
:10389000146A12BE1468000E142213C0E1FF14C093
:1038A000E2FF400EE76EFE0E1026E00E1024136EAF
:1038B000146A10BE1468000E142213C0E1FF14C075
:1038C000E2FF000EE76E136A11BE1368F00E1126B8
:1038D000000E132211C0E1FF13C0E2FF700EE76E6D
:1038E00010C111F011C113F0F00E1126000E1322B9
:1038F00011C0E1FF13C0E2FF600EE76E116A12BE55
:103900001168F00E1226000E112212C0E1FF11C044
:10391000E2FF400EE76E116A10BE1168F00E10262D
:10392000000E112210C0E1FF11C0E2FF000EE76E91
:10393000A7EF21F001011051106E1028116EE00E5A
:103940001124126E136A11BE1368000E132212C0E6
:10395000E1FF13C0E2FF700EE76E10C112F011C15B
:1039600013F0E00E1226000E132212C0E1FF13C066
:10397000E2FF600EE76E1004126EE00E1224136E6A
:10398000146A12BE1468000E142213C0E1FF14C0A2
:10399000E2FF400EE76EFE0E1026E00E1024136EBE
:1039A000146A10BE1468000E142213C0E1FF14C084
:1039B000E2FF000EE76E136A11BE1368F00E1126C7
:1039C000000E132211C0E1FF13C0E2FF700EE76E7C
:1039D00010C111F011C113F0F00E1126000E1322C8
:1039E00011C0E1FF13C0E2FF600EE76E116A12BE64
:1039F0001168F00E1226000E112212C0E1FF11C054
:103A0000E2FF400EE76E116A10BE1168F00E10263C
:103A1000000E112210C0E1FF11C0E2FF000EE76EA0
:103A2000A7EF21F001011051106EF90E1024116E54
:103A3000E80E1124126E136A11BE1368000E1322D1
:103A400012C0E1FF13C0E2FF700EE76E10C112F06A
:103A500011C113F0E00E1226000E132212C0E1FF76
:103A600013C0E2FF600EE76E1004126EE00E122427
:103A7000136E146A12BE1468000E142213C0E1FF04
:103A800014C0E2FF400EE76EFE0E1026E00E10247A
:103A9000136E146A10BE1468000E142213C0E1FFE6
:103AA00014C0E2FF000EE76E136A11BE1368F80E31
:103AB0001126000E132211C0E1FF13C0E2FF700EA9
:103AC000E76E10C111F011C113F0F00E1126000EB7
:103AD000132211C0E1FF13C0E2FF600EE76E116A0E
:103AE00012BE1168F00E1226000E112212C0E1FF64
:103AF00011C0E2FF400EE76E116A10BE1168F00EB1
:103B00001026000E112210C0E1FF11C0E2FF000ECE
:103B1000E76EA7EF21F001011051106EF90E10248D
:103B2000116EE80E1124126E136A11BE1368000E96
:103B3000132212C0E1FF13C0E2FF700EE76EF80E11
:103B40001024126EE80E1224136E146A12BE14684A
:103B5000000E142213C0E1FF14C0E2FF600EE76EF6
:103B60001004136EE00E1324146E156A13BE15684C
:103B7000000E152214C0E1FF15C0E2FF400EE76EF3
:103B8000FE0E1026E00E1024146E156A10BE156885
:103B9000000E152214C0E1FF15C0E2FF000EE76E13
:103BA000146A11BE1468F80E1126000E142211C0FA
:103BB000E1FF14C0E2FF700EE76E116A12BE1168D9
:103BC000F80E1226000E112212C0E1FF11C0E2FF12
:103BD000600EE76E116A13BE1168F00E1326000E18
:103BE000112213C0E1FF11C0E2FF400EE76E116A1F
:103BF00010BE1168F00E1026000E112210C0E1FF59
:103C000011C0E2FF000EE76EA7EF21F00101105195
:103C1000106EF90E1024116EE80E1124126E136A44
:103C200011BE1368000E132212C0E1FF13C0E2FFA1
:103C3000700EE76EF80E1024126EE80E1224136E4A
:103C4000146A12BE1468000E142213C0E1FF14C0DF
:103C5000E2FF600EE76EF70E1024136EE80E1324D9
:103C6000146E156A13BE1568000E152214C0E1FF0C
:103C700015C0E2FF400EE76EFE0E1026E00E102487
:103C8000146E156A10BE1568000E152214C0E1FFEF
:103C900015C0E2FF000EE76E146A11BE1468F80E3C
:103CA0001126000E142211C0E1FF14C0E2FF700EB5
:103CB000E76E116A12BE1168F80E1226000E11226C
:103CC00012C0E1FF11C0E2FF600EE76E116A13BE81
:103CD0001168F80E1326000E112213C0E1FF11C067
:103CE000E2FF400EE76E116A10BE1168F00E10265A
:103CF000000E112210C0E1FF11C0E2FF000EE76EBE
:103D0000A7EF21F001011051106EF90E1024116E71
:103D1000E80E1124126E136A11BE1368000E1322EE
:103D200012C0E1FF13C0E2FF700EE76EF80E102420
:103D3000126EE80E1224136E146A12BE1468000E7E
:103D4000142213C0E1FF14C0E2FF600EE76EF70E0D
:103D50001024136EE80E1324146E156A13BE156832
:103D6000000E152214C0E1FF15C0E2FF400EE76E01
:103D7000F60E1026E80E1024146E156A10BE156893
:103D8000000E152214C0E1FF15C0E2FF000EE76E21
:103D9000146A11BE1468F80E1126000E142211C008
:103DA000E1FF14C0E2FF700EE76E116A12BE1168E7
:103DB000F80E1226000E112212C0E1FF11C0E2FF20
:103DC000600EE76E116A13BE1168F80E1326000E1E
:103DD000112213C0E1FF11C0E2FF400EE76E116A2D
:103DE00010BE1168F80E1026000E112210C0E1FF5F
:103DF00011C0E2FF000EE76EA7EF21F001011051A4
:103E0000106EF90E1024116EE80E1124126E136A52
:103E100011BE1368000E132212C0E1FF13C0E2FFAF
:103E2000700EE76EF80E1024126EE80E1224136E58
:103E3000146A12BE1468000E142213C0E1FF14C0ED
:103E4000E2FF600EE76EF70E1024136EE80E1324E7
:103E5000146E156A13BE1568000E152214C0E1FF1A
:103E600015C0E2FF400EE76EF60E1026E80E102495
:103E7000146E156A10BE1568000E152214C0E1FFFD
:103E800015C0E2FF000EE76E146A11BE1468F80E4A
:103E90001126000E142211C0E1FF14C0E2FF700EC3
:103EA000E76E116A12BE1168F80E1226000E11227A
:103EB00012C0E1FF11C0E2FF600EE76E116A13BE8F
:103EC0001168F80E1326000E112213C0E1FF11C075
:103ED000E2FF400EE76E116A10BE1168F80E102660
:103EE000000E112210C0E1FF11C0E2FF000EE76ECC
:103EF000A7EF21F001011051106EF90E1024116E80
:103F0000E80E1124126E136A11BE1368000E1322FC
:103F100012C0E1FF13C0E2FF700EE76EF80E10242E
:103F2000126EE80E1224136E146A12BE1468000E8C
:103F3000142213C0E1FF14C0E2FF600EE76EF70E1B
:103F40001024136EE80E1324146E156A13BE156840
:103F5000000E152214C0E1FF15C0E2FF400EE76E0F
:103F6000F60E1026E80E1024146E156A10BE1568A1
:103F7000000E152214C0E1FF15C0E2FF000EE76E2F
:103F8000146A11BE1468F80E1126000E142211C016
:103F9000E1FF14C0E2FF700EE76E116A12BE1168F5
:103FA000F80E1226000E112212C0E1FF11C0E2FF2E
:103FB000600EE76E116A13BE1168F80E1326000E2C
:103FC000112213C0E1FF11C0E2FF400EE76E116A3B
:103FD00010BE1168F80E1026000E112210C0E1FF6D
:103FE00011C0E2FF000EE76EB2D101011051106E58
:103FF000F90E1024116EE80E1124126E136A11BE10
:104000001368000E132212C0E1FF13C0E2FF700E0E
:10401000E76EF80E1024126EE80E1224136E146A66
:1040200012BE1468000E142213C0E1FF14C0E2FF98
:10403000600EE76EF70E1024136EE80E1324146E54
:10404000156A13BE1568000E152214C0E1FF15C0D5
:10405000E2FF400EE76EF60E1026E80E1024146EF6
:10406000156A10BE1568000E152214C0E1FF15C0B8
:10407000E2FF000EE76E146A11BE1468F80E1126F6
:10408000000E142211C0E1FF14C0E2FF700EE76EB3
:10409000116A12BE1168F80E1226000E112212C00B
:1040A000E1FF11C0E2FF600EE76E116A13BE1168F6
:1040B000F80E1326000E112213C0E1FF11C0E2FF1B
:1040C000400EE76E116A10BE1168F80E1026000E41
:1040D000112210C0E1FF11C0E2FF000EE76E37D1E0
:1040E00001011051106EF90E1024116EE80E11240A
:1040F000126E136A11BE1368000E132212C0E1FF84
:1041000013C0E2FF700EE76EF80E1024126EE80E78
:104110001224136E146A12BE1468000E142213C007
:10412000E1FF14C0E2FF600EE76EF70E1024136E7D
:10413000E80E1324146E156A13BE1568000E1522BE
:1041400014C0E1FF15C0E2FF400EE76EF60E102628
:10415000E80E1024146E156A10BE1568000E1522A4
:1041600014C0E1FF15C0E2FF000EE76E146A11BE35
:104170001468F80E1126000E142211C0E1FF14C0BD
:10418000E2FF700EE76E116A12BE1168F80E122679
:10419000000E112212C0E1FF11C0E2FF600EE76EB7
:1041A000116A13BE1168F80E1326000E112213C0F7
:1041B000E1FF11C0E2FF400EE76E116A10BE116808
:1041C000F80E1026000E112210C0E1FF11C0E2FF10
:1041D000000EE76EBCD001011051106EF80E1024D5
:1041E000116EE80E1124126E136A11BE1368000ED0
:1041F000132212C0E1FF13C0E2FF600EE76EF70E5C
:104200001024126EE80E1224136E146A12BE146883
:10421000000E142213C0E1FF14C0E2FF400EE76E4F
:10422000F60E1026E80E1024136E146A10BE1468E1
:10423000000E142213C0E1FF14C0E2FF000EE76E6F
:10424000136A11BE1368F80E1126000E132211C056
:10425000E1FF13C0E2FF600EE76E116A12BE116843
:10426000F80E1226000E112212C0E1FF11C0E2FF6B
:10427000400EE76E116A10BE1168F80E1026000E8F
:10428000112210C0E1FF11C0E2FF000EE76E5FD007
:1042900001011051106EF70E1024116EE80E11245A
:1042A000126E136A11BE1368000E132212C0E1FFD2
:1042B00013C0E2FF400EE76EF60E1026E80E102443
:1042C000126E136A10BE1368000E132212C0E1FFB3
:1042D00013C0E2FF000EE76E126A11BE1268F80EFC
:1042E0001126000E122211C0E1FF12C0E2FF400EA3
:1042F000E76E116A10BE1168F80E1026000E11222A
:1043000010C0E1FF11C0E2FF000EE76E20D00101F6
:104310001051106EF60E1026E80E1024116E126A5F
:1043200010BE1268000E122211C0E1FF12C0E2FF9F
:10433000000EE76E116A10BE1168F80E1026000E0E
:10434000112210C0E1FF11C0E2FF000EE76E010173
:10435000102B01E3112B9DEF19F0000EED6E010EF5
:104360008EEC25F0E92A000EED6E020E8EEC25F0A3
:10437000E92AECCF15F0ECCF14F0ECCF13F0ECCF32
:1043800012F0ECCF11F0ECCF10F0120010C0EDFFE6
:1043900011C0EDFF12C0EDFF13C0EDFF000EED6E7A
:1043A000010E8EEC25F0E92A000EED6E020E8EEC69
:1043B00025F0E92A070E0101006F016BD890010179
:1043C00001AFD880D8A066D00101026B036B000E4C
:1043D0000101035D02E1080E025D27E201010151C6
:1043E000ED6E0051ED6E000EED6E080EED6EA7EC59
:1043F0002BF0106EF3CF11F0040EE926800E10267C
:10440000000E112202C112F003C113F01250102647
:104410001350112210C0E1FF11C0E2FF700EE76ED1
:104420000101022B01E3032BD2D70101026B036BC5
:10443000000E0101035D02E1080E025D22E20101AE
:104440000051106E102A1050080DF3CF10F0116AB1
:1044500010BE1168800E1026000E112202C112F04B
:1044600003C113F0125010261350112210C0E1FFA7
:1044700011C0E2FF000EE76E0101022B01E3032BE6
:10448000D7D7190ECEEC16F0FF0E0101002701E27E
:10449000010794D7000EED6E010E8EEC25F0E92A8F
:1044A000000EED6E020E8EEC25F0E92A0101006B84
:1044B000016B01010151800F800F02E1060E005DCA
:1044C000D8B0D1D0D880010101AFD890D8B048D0B1
:1044D0000151800F800F02E1060E005DD8B040D080
:1044E00014C0EDFF15C0EDFF156A0101003515364A
:1044F000E8341536FC0B146E000EFB6E450EFA6E9A
:10450000180E14261550FA22D8B0FB2A1450ECCFFE
:1045100015F0ECCF14F0F96E98EF22F09CEF22F03A
:10452000A0EF22F0A4EF22F0A8EF22F0ACEF22F0EF
:10453000600E0101236F16D0400E0101236F12D0CF
:10454000500E0101236F0ED0100E0101236F0AD00F
:10455000300E0101236F06D0200E0101236F02D01F
:104560000101236B0101026B036B000E0101035D6E
:1045700002E1080E025D36E2000EED6E020EED6EF7
:1045800001010151ED6E0051ED6E9FEC29F0106EAE
:10459000F3CF11F0040EE9261150ED6E1050ED6EC0
:1045A000000EED6E080EED6EA7EC2BF0106EF3CF43
:1045B00011F0040EE926C00E1026000E112202C1D1
:1045C00012F003C113F0125010261350112210C024
:1045D000E1FF11C0E2FF23C1E7FF0101022B01E36C
:1045E000032BC3D70101026B036B000E0101035DB6
:1045F00002E1080E025D2FE2000EED6E020EED6E7E
:1046000001010151ED6E0051ED6E9FEC29F0106E2D
:10461000F3CF11F0040EE92610061050080DF3CF69
:1046200010F0116A10BE1168C00E1026000E112283
:1046300002C112F003C113F01250102613501122C0
:1046400010C0E1FF11C0E2FF000EE76E0101022B76
:1046500001E3032BCAD7960ECEEC16F00101002B16
:1046600001E3012B26D7000EED6E010E8EEC25F036
:10467000E92A000EED6E020E8EEC25F0E92AECCF51
:1046800013F0ECCF12F0ECCF11F0ECCF10F01200E1
:10469000D9CFEDFFE9CFD9FF10C0EDFF11C0EDFF7D
:1046A00012C0EDFF13C0EDFF14C0EDFF15C0EDFF0C
:1046B00016C0EDFF17C0EDFF18C0EDFF19C0EDFFEC
:1046C0001AC0EDFF106E020EDBCF11F0030EDBCF30
:1046D00012F0136A700E1026D8A01306146A12C0C6
:1046E00015F0D88013AED890D8B08FD01350800F6B
:1046F000800F02E1080E105CD8B087D01150E00F97
:10470000166EFF0E1420176ED88017AED890D8B052
:104710001CD11750800F800F02E10C0E165CD8B030
:1047200014D11BC0EDFF1CC0EDFF1C6A16341C36F3
:10473000E8341C36FC0B1B6E000EFB6E470EFA6E47
:10474000580E1B261C50FA22D8B0FB2A1B50ECCF67
:104750001CF0ECCF1BF0F96EC4EF23F0C4EF23F094
:10476000C4EF23F0DEEF23F0DEEF23F0DEEF23F0E3
:10477000DEEF23F0DEEF23F0DEEF23F0DEEF23F0B9
:10478000DEEF23F0F8EF23F01150166EE00E162640
:104790001650080DF3CF16F0176A16BE1768C00E34
:1047A0001626000E1722105016261350172216C078
:1047B000E1FF17C0E2FF15C0E7FFC7D01150166E2A
:1047C000DD0E16261650080DF3CF16F0176A16BE2A
:1047D0001768800E1626000E17221050162613504A
:1047E000172216C0E1FF17C0E2FF15C0E7FFADD0EA
:1047F000D80E1024166E000E1320176E16C0E1FF9F
:1048000017C0E2FF12C0E7FFA0D01350800F800F47
:1048100002E1080E105CD8A098D01350800F800FD2
:1048200002E1100E105CD8B090D01150E00F106E65
:10483000FF0E1420126ED88012AED890D8B049D096
:104840001250800F800F02E1110E105CD8B041D0E1
:10485000136A166A1650800F800F02E1080E135C6F
:1048600038E2E00E1324176E000E1620186E135057
:10487000101807E11650121801E003D015C019F006
:1048800001D0196A17C0E1FF18C0E2FF19C0E7FFA5
:10489000E80E1324176E000E1620186E1350080F22
:1048A000196E000E16201A6E1950101807E11A50D2
:1048B000121801E003D015C019F001D0196A17C011
:1048C000E1FF18C0E2FF19C0E7FF132AD8B0162A8B
:1048D000C1D71250800F800F02E1110E105C18E357
:1048E0001250800F800F02E1190E105C11E211507E
:1048F000136ECF0E1326166A13BE1668F00E13261B
:10490000000E162213C0E1FF16C0E2FF15C0E7FF3C
:104910001250800F800F02E1190E105C16E3125046
:10492000800F800F02E1210E105C0FE2C70E1126EE
:10493000106A11BE1068F80E1126000E102211C068
:10494000E1FF10C0E2FF15C0E7FFECCF1AF0ECCF9B
:1049500019F0ECCF18F0ECCF17F0ECCF16F0ECCF4D
:1049600015F0ECCF14F0ECCF13F0ECCF12F0ECCF4D
:1049700011F0ECCF10F0ECCFD9FF1200D9CFEDFF42
:10498000E9CFD9FF10C0EDFF11C0EDFF12C0EDFF60
:10499000106E1050770A1DE01050F00A11E0105010
:1049A000F70A13E01050F80A01E13CD01050FA0A5F
:1049B0002DE01050FB0A2AE01050FC0A27E09CD0A2
:1049C000010E0101146F156BA0D00101146B156B62
:1049D0009CD001011451010A02E1155101E095D06A
:1049E00001012451010A06E180EC19F00101126B6A
:1049F000136B8BD001012451020A01E086D005EC33
:104A000028F0010E0101126F136B7FD00101166BAC
:104A1000176B0101186B196B01011A6B1B6B0001FD
:104A2000F56B73D00101162B01E3172B000EED6E11
:104A3000180EED6E01011751ED6E1651ED6E8FECF3
:104A40002AF0116EF3CF12F0040EE9261150121065
:104A5000D8A434D00101182B01E3192B01011851FE
:104A6000030B07E101011A2B01E31B2B0101186B5A
:104A7000196B82EC16F0000E88EC16F001011B5148
:104A8000ED6E1A5156EC2EF0E92A040E88EC16F061
:104A900001011951ED6E185156EC2EF0E92A080E5D
:104AA00088EC16F001011751ED6E165156EC2EF000
:104AB000E92A010125810101166B176B000E010126
:104AC000175D02E10C0E165D14E201011851191177
:104AD0000CE101011A51030B04E1700E0001F56FA6
:104AE00014D0200E0001F56F10D0400E0001F56FBC
:104AF0000CD00001F56B09D001011451010A02E14B
:104B0000155101E002D010C024F1ECCF12F0ECCF2F
:104B100011F0ECCF10F0ECCFD9FF1200D9CFEDFFA0
:104B2000E9CFD9FF10C0EDFF11C0EDFF12C0EDFFBE
:104B300013C0EDFF14C0EDFF15C0EDFF16C0EDFF73
:104B400017C0EDFF18C0EDFF19C0EDFF106E020E8B
:104B5000DBCF11F01050010A02E1115006E01050B5
:104B6000020A02E1115038E06DD0106A116A126A2F
:104B7000136A000E115C02E1080E105C26E2800E42
:104B80001224146E000E1320156E166A176A000E9A
:104B9000175C02E1080E165C10E216501424186E21
:104BA00017501520196E18C0E1FF19C0E2FF000E62
:104BB000E76E162AD8B0172AEAD7080E1226D8B000
:104BC000132A102AD8B0112AD4D7000EED6E000E89
:104BD0003EEC2EF0E92A36D0106A116A126A136A86
:104BE000000E115C02E1080E105C26E2C00E1224D9
:104BF000146E000E1320156E166A176A000E175CED
:104C000002E1080E165C10E216501424186E1750BC
:104C10001520196E18C0E1FF19C0E2FF000EE76E03
:104C2000162AD8B0172AEAD7080E1226D8B0132AA7
:104C3000102AD8B0112AD4D7000EED6E040E3EEC27
:104C40002EF0E92AECCF19F0ECCF18F0ECCF17F0EA
:104C5000ECCF16F0ECCF15F0ECCF14F0ECCF13F056
:104C6000ECCF12F0ECCF11F0ECCF10F0ECCFD9FF7D
:104C7000120010C0EDFF11C0EDFF12C0EDFF13C018
:104C8000EDFF000EED6E010E8EEC25F0E92A000E10
:104C9000ED6E020E8EEC25F0E92A01010C6B0D6B16
:104CA00001010D51800F800F02E1080E0C5DD8B09C
:104CB00068D001010E6B0F6B000E01010F5D02E168
:104CC000080E0E5D27E201010D51ED6E0C51ED6EE7
:104CD000000EED6E080EED6EA7EC2BF0106EF3CF0C
:104CE00011F0040EE926C00E1026000E11220EC18E
:104CF00012F00FC113F0125010261350112210C0E1
:104D0000E1FF11C0E2FF700EE76E01010E2B01E31F
:104D10000F2BD2D701010E6B0F6B000E01010F5D3F
:104D200002E1080E0E5D22E201010C51106E100628
:104D30001050080DF3CF10F0116A10BE1168C00EAC
:104D40001026000E11220EC112F00FC113F01250E6
:104D500010261350112210C0E1FF11C0E2FF000E17
:104D6000E76E01010E2B01E30F2BD7D7FA0ECEEC25
:104D700016F0FA0ECEEC16F001010C2B01E30D2B10
:104D80008FD7000EED6E010E8EEC25F0E92A000E95
:104D9000ED6E020E8EEC25F0E92AECCF13F0ECCF8D
:104DA00012F0ECCF11F0ECCF10F0120010C0EDFFBC
:104DB00011C0EDFF12C0EDFF13C0EDFF000EED6E50
:104DC000010E8EEC25F0E92A000EED6E020E8EEC3F
:104DD00025F0E92A0101086B096B01010951800FD7
:104DE000800F02E1080E085DD8B068D001010A6B9F
:104DF0000B6B000E01010B5D02E1080E0A5D27E25C
:104E000001010951ED6E0851ED6E000EED6E080EB8
:104E1000ED6EA7EC2BF0106EF3CF11F0040EE92627
:104E2000800E1026000E11220AC112F00BC113F0E1
:104E3000125010261350112210C0E1FF11C0E2FFE2
:104E4000700EE76E01010A2B01E30B2BD2D7010193
:104E50000A6B0B6B000E01010B5D02E1080E0A5D8F
:104E600022E201010851106E10061050080DF3CF18
:104E700010F0116A10BE1168800E1026000E11226B
:104E80000AC112F00BC113F0125010261350112258
:104E900010C0E1FF11C0E2FF000EE76E01010A2B16
:104EA00001E30B2BD7D7FA0ECEEC16F0FA0ECEECB0
:104EB00016F00101082B01E3092B8FD7000EED6ED0
:104EC000010E8EEC25F0E92A000EED6E020E8EEC3E
:104ED00025F0E92AECCF13F0ECCF12F0ECCF11F073
:104EE000ECCF10F01200B032B132B232B332B43281
:104EF000B532B632B732B033B133B233B333B43381
:104F0000B533B633B733B034B134B234B334B43468
:104F1000B534B634B734B035B135B235B335B43550
:104F2000B535B635B735B036B136B236B336B43638
:104F3000B536B636B736B037B137B237B337B43720
:104F4000B537B637B737B038B138B238B338B43808
:104F5000B538B638B738B039B139B239B339B439F0
:104F6000B539B639B7399800980198029803980472
:104F700098059806980798089809980A980B980C2D
:104F8000980D980E980F98109811981298139814DD
:104F900098159816981798189819981A981B981C8D
:104FA000981D981E981F900B910B920B930B970BCB
:104FB000960B950B940B9101910290019002930234
:104FC0009301920192029000910093009200950249
:104FD0009501940194029400950097009600970221
:104FE0009701960196023241494E20202044494EB5
:104FF0002020444F5554000078783A78787820780B
:105000007878782078787878000010C0EDFF11C0AB
:10501000EDFF12C0EDFF13C0EDFF000EED6E020EAE
:105020008EEC25F0E92A0101046B056B000E0101ED
:10503000055D02E1080E045DD8B063D00101066B86
:10504000076B000E0101075D02E1080E065D27E215
:1050500001010551ED6E0451ED6E000EED6E080E6E
:10506000ED6EA7EC2BF0106EF3CF11F0040EE926D5
:10507000800E1026000E112206C112F007C113F097
:10508000125010261350112210C0E1FF11C0E2FF90
:10509000400EE76E0101062B01E3072BD2D7010179
:1050A000066B076B000E0101075D02E1080E065D4D
:1050B00020E201010451106E10061050080DF3CFCC
:1050C00010F0116A800E1026000E112206C112F097
:1050D00007C113F0125010261350112210C0E1FF27
:1050E00011C0E2FF000EE76E0101062B01E3072B62
:1050F000D9D7280ECEEC16F00101042B01E3052BC5
:1051000095D7000EED6E010E8EEC25F0E92A000E0B
:10511000ED6E020E8EEC25F0E92AECCF13F0ECCF09
:1051200012F0ECCF11F0ECCF10F0120003EE7FF094
:1051300023EE7FF0CAEF2CF003EE7FF023EE7FF03A
:1051400081EF2EF023EE3FF0E9CFDDFFEACFDDFF68
:1051500003EE3DF080EC2EF03FC3E9FF3EC3EAFFD3
:105160001200120003EE7FF023EE7FF042EF2DF0ED
:1051700003EE7FF023EE7FF0F7EF2BF003EE7FF0EE
:1051800023EE7FF005C0EDFF04C0EDFF035048EFB4
:1051900023F003EE7FF023EE7FF005C0EDFF04C0A7
:1051A000EDFF03C0EDFFED6E2AEF2EF003EE7FF072
:1051B00023EE7FF07FEF2EF003EE7FF023EE7FF003
:1051C000BEEF24F01200120003EE7FF023EE7FF01A
:1051D00004C0EDFF1CEF29F003EE7FF023EE7FF01B
:1051E00004C0EDFF23EF2EF023EE3FF0E9CFDDFF0B
:1051F000EACFDDFF03EE3DF01AEC2AF03FC3E9FFF2
:105200003EC3EAFF120023EE3FF0E9CFDDFFEACF15
:10521000DDFF03EE3DF07EEC2EF03FC3E9FF3EC321
:10522000EAFF120003EE7FF023EE7FF005C0EDFFF2
:1052300004C0EDFFF0EF2AF0D9CFEDFFE9CFD9FFA1
:1052400010C0EDFF11C0EDFF12C0EDFF13C0EDFF68
:1052500014C0EDFF15C0EDFF106E020EDBCF11F094
:10526000D8901034126E136A146A660E12264F0E0E
:105270001322000E142212C0F6FF13C0F7FF14C051
:10528000F8FF0900F5CF15F0122AD8B0132AD8B0CC
:10529000142A12C0F6FF13C0F7FF14C0F8FF09006C
:1052A000F5CF12F000EC16F0155024EC16F0125069
:1052B00024EC16F0115002E0126A02D07F0E126E3A
:1052C000125024EC16F008EC16F001011251010AFC
:1052D00002E1135101E020D011501EE11050100ADC
:1052E0000DE01050110A0DE01050120A0DE01050A0
:1052F000130A0DE01050170A0DE00ED0C6EC21F095
:105300000BD005EC28F008D0D6EC26F005D039EC0F
:1053100026F002D080EC19F010C027F101012581A0
:10532000ECCF15F0ECCF14F0ECCF13F0ECCF12F083
:10533000ECCF11F0ECCF10F0ECCFD9FF1200D9CFA9
:10534000EDFFE9CFD9FF10C0EDFF11C0EDFF12C096
:10535000EDFF13C0EDFF14C0EDFF15C0EDFF16C04B
:10536000EDFF17C0EDFF020EDBCF10F0030EDBCF19
:1053700011F0040EDBCF12F0050EDBCF13F0D88056
:1053800011AED890146A1436145007E0111C166E32
:10539000101C156E154A162A04D010C015F011C045
:1053A00016F015C010F016C011F0D88013AED890CA
:1053B000156A1536155007E0131C176E121C166E71
:1053C000164A172A04D012C016F013C017F017504F
:1053D000ED6E1650ED6E1150ED6E1050ED6E4CEC02
:1053E0002BF0106EF3CF11F0040EE9261550141AAD
:1053F00014500AE0111C136E101C126E124A132A6C
:1054000013C0F3FF125003D011C0F3FF1050ECCFC4
:1054100017F0ECCF16F0ECCF15F0ECCF14F0ECCF8A
:1054200013F0ECCF12F0ECCF11F0ECCF10F0ECCF8A
:10543000D9FF120010C0EDFF11C0EDFF12C0EDFF4B
:1054400013C0EDFF14C0EDFF0101222B070E221740
:10545000000EED6E000E3EEC2EF0E92A000EED6E11
:10546000040E3EEC2EF0E92A0101225164EC16F004
:10547000200E01012225106E105064EC16F0106A07
:10548000116A000E115C02E1080E105CD8B03CD02D
:105490001050126E01012251080DF3CF13F0146A5F
:1054A000800E1326000E14221050132611501422C1
:1054B00013C0E1FF14C0E2FFE7CF13F01350ED6E0D
:1054C000125046EC2CF0E92A200E1226010122513E
:1054D000080DF3CF13F0146AC00E1326000E142229
:1054E000105013261150142213C0E1FF14C0E2FF24
:1054F000E7CF13F01350ED6E125046EC2CF0E92A72
:10550000102AD8B0112ABDD7ECCF14F0ECCF13F08D
:10551000ECCF12F0ECCF11F0ECCF10F01200D9CF9D
:10552000EDFFE9CFD9FF10C0EDFF11C0EDFF12C0B4
:10553000EDFF13C0EDFF14C0EDFF15C0EDFF16C069
:10554000EDFF17C0EDFF020EDBCF10F0030EDBCF37
:1055500011F0040EDBCF12F0050EDBCF13F0146A4E
:10556000156A1344010B166E176A16B011D012504B
:10557000122613361350115C02E11250105C04E243
:10558000D8901332123204D0152A15C014F0E9D77E
:105590001350115C02E11250105C04E31250105ED3
:1055A0001350115AD8901332123214C015F0140649
:1055B0001550EEE111C0F3FF1050ECCF17F0ECCF17
:1055C00016F0ECCF15F0ECCF14F0ECCF13F0ECCFDD
:1055D00012F0ECCF11F0ECCF10F0ECCFD9FF1200AD
:1055E000D9CFEDFFE9CFD9FF10C0EDFF11C0EDFF1E
:1055F00012C0EDFF13C0EDFF14C0EDFF106E00EC04
:1056000016F0D8901034116EE60E1124126E136A43
:105610004E0E1322146A000E142212C0F6FF13C09D
:10562000F7FF14C0F8FF0900F5CF12F0125024EC78
:1056300016F0126A136AE60E11264E0E1222000EA2
:105640001322112AD8B0122AD8B0132A11C0F6FF9B
:1056500012C0F7FF13C0F8FF0900F5CF11F0115089
:1056600024EC16F0105038EC16F0116E115024ECAA
:1056700016F008EC16F010C026F101012581ECCFE0
:1056800014F0ECCF13F0ECCF12F0ECCF11F0ECCF24
:1056900010F0ECCFD9FF1200D9CFEDFFE9CFD9FF41
:1056A00010C0EDFF11C0EDFF12C0EDFF13C0EDFF04
:1056B00014C0EDFF15C0EDFF16C0EDFF17C0EDFFE4
:1056C00018C0EDFF020EDBCF10F0030EDBCF11F0A0
:1056D000040EDBCF12F0050EDBCF13F0146A156A4F
:1056E000100E166E1144010B176E186A010E171674
:1056F000186A1050102611361450142615361750FB
:1057000001E014801350155C02E11250145C05E3B3
:105710001250145E1350155A1080162EE3D711C084
:10572000F3FF1050ECCF18F0ECCF17F0ECCF16F0E1
:10573000ECCF15F0ECCF14F0ECCF13F0ECCF12F06F
:10574000ECCF11F0ECCF10F0ECCFD9FF1200D9CF95
:10575000EDFFE9CFD9FF10C0EDFF11C0EDFF12C082
:10576000EDFF13C0EDFF020EDBCF10F0030EDBCF19
:1057700011F0040EDBCF12F0050EDBCF13F010504A
:1057800001011C6F11501D6F125001011E6F13504B
:105790001F6F01011C5101011E03F3CF10F0F4CF64
:1057A00011F010500101206F1150216F01011C51A7
:1057B00001011F03F3CF10F001011D5101011E0370
:1057C000F3CF11F011501026010121511026105075
:1057D000216F21C1F3FF2051ECCF13F0ECCF12F079
:1057E000ECCF11F0ECCF10F0ECCFD9FF120010C0CD
:1057F000EDFF010125B101D046D001012591400EF8
:1058000088EC16F001012629106E105090EC16F06D
:105810003A0E94EC16F00101265138EC16F0106E99
:10582000105092EC16F0470E88EC16F00101272973
:10583000106E105092EC16F0010127515AEC16F040
:10584000106E105003E06F0E106E02D02A0E106E14
:10585000105094EC16F04C0E88EC16F0010128293B
:10586000106E105092EC16F0010128515EEC16F00B
:10587000106E105003E02A0E106E02D06F0E106EE4
:10588000105094EC16F0ECCF10F01200D9CFEDFFD1
:10589000E9CFD9FF10C0EDFF11C0EDFF12C0EDFF41
:1058A00013C0EDFF106E020EDBCF11F011380F0B9D
:1058B000116E080E1024126E010E1114136E135087
:1058C000ED6E125038EC2EF0E92AD8901132100EFD
:1058D0001024126E010E1114136E1350ED6E12503F
:1058E00038EC2EF0E92AD8901132180E1026010E4D
:1058F00011161150ED6E105038EC2EF0E92AECCF55
:1059000013F0ECCF12F0ECCF11F0ECCF10F0ECCFA5
:10591000D9FF12000000000000000000000000009D
:105920000000000000000000000000000000000077
:105930000000000000000000000000000000000067
:105940000000000000000000000000000000000057
:105950000000000000000000000000000000000047
:105960000000000000000000000000000000000037
:105970000000000000000000000000000000000027
:105980000000000000000000000000000000000017
:1059900000000000010E0101126F136B0101146B76
:1059A000156B0101246B0101166B176B0101186B5C
:1059B000196B01011A6B1B6B020E14EC16F0010E31
:1059C00080EC16F0080E78EC16F00A0E12EC17F0C8
:1059D000000E7CEC16F0400E36EC16F032EC16F0B1
:1059E000070E30EC16F0000EED6E000E3EEC2EF0C1
:1059F000E92A000EED6E040E3EEC2EF0E92A1200AC
:105A0000F66EE9CFD9FFDCCFF7FFDC50E8BE08D057
:105A1000F86E0900F55003E094EC16F0FAD7120086
:105A2000D9CF06F0DACF07F0F6CFD9FFF7CFDAFFFC
:105A3000DE5003E094EC16F0FBD706C0D9FF07C098
:105A4000DAFF1200E9CFD9FF0A6EDCCFE1FFDCCF2D
:105A5000E2FFDC52DCCF03F0DCCF04F0E6CF06F04F
:105A6000E6CF07F010EE06F00A50DCEC16F0E9CFB6
:105A7000D9FFDCCFE1FFDCCFE2FF06C0E6FF07C0C5
:105A8000E6FF120082EC16F0000E88EC16F0000E15
:105A9000ED6E4F0EED6EE60E00EC2DF0020EE926D7
:105AA000400E88EC16F0000EED6E4F0EED6EF80E07
:105AB00000EC2DF0020EE92601012581C6EC21F053
:105AC0001200F66EE9CFD9FFDCCFF7FFDCCFF8FF8D
:105AD000DCCFE1FFDCCFE2FFB4EF16F0F66EE9CFEA
:105AE000D9FFDCCFF7FFDCCFF8FFDCCFE1FFDCCF65
:105AF000E2FFB6EF16F0036EE9CFD9FFDCCF04F07A
:105B0000DCCFE1FFDCCFE2FFF2EF16F0036EE9CF6E
:105B1000D9FFDCCF04F0DCCFE1FFDCCFE2FF18EFF0
:105B200017F0E9CFD9FFDCCFF8FFDCCFF7FFDCCFF0
:105B3000F6FF9CEF16F0E9CFD9FF036EDCCF04F03F
:105B4000DCCF05F0DC50A8EF16F0E9CFD9FFDCCFB1
:105B5000F6FFDCCFF7FFDCCFF8FFE4EF16F0F66ED0
:105B6000E9CFD9FFDCCFF7FFDCCFF8FF9AEF16F0D3
:105B7000F66EE9CFD9FFDCCFF7FFDCCFF8FF9EEF61
:105B800016F0F66EE9CFD9FFDCCFF7FFDCCFF8FFD8
:105B9000E6EF16F0F66EE9CFD9FFDCCFF7FFDCCFEA
:105BA000F8FFAAEF16F0A96EE9CFD9FFDCCFE1FF2D
:105BB000DCCFE2FF1AEF17F0A96EE9CFD9FFDCCFF7
:105BC000E1FFDCCFE2FF1CEF17F0E9CFD9FFDCCF1C
:105BD00003F0DCCF04F052EF16F0E9CFD9FFDCCFB1
:105BE00003F0DCCF04F074EF16F0E9CFD9FFDCCF7F
:105BF00003F0DCCF04F0A4EF16F0036EE9CFD9FF79
:105C0000DCCF04F0DC50BAEF16F0E9CFD9FFDCCFDF
:105C100003F0DCCF04F0BCEF16F0E9CFD9FFDCCF06
:105C200003F0DCCF04F01EEF17F0036EE9CFD9FFCD
:105C3000DCCF04F0B8EF16F01200120012001200D0
:105C4000120012001200D9CFEDFFE9CFD9FFECCF3F
:105C5000D9FF1200D9CFEDFFE9CFD9FFECCFD9FFA3
:105C600012000100145900008000000080000000B4
:105C7000E9CFD9FFDCCF03F060EF16F0E9CFD9FF11
:105C8000DCCF03F068EF16F0E9CFD9FFDCCF03F0EB
:105C90006AEF16F0E9CFD9FFDCCF03F06EEF16F014
:105CA000E9CFD9FFDCCF03F072EF16F0E9CFD9FFCF
:105CB000DCCF03F0F6EF16F0E9CFD9FFDCCF03F02D
:105CC000F8EF16F0E9CFD9FFDCCF03F0AEEF16F016
:105CD000A96EE9CFD9FFDC50B2EF16F0E9CFD9FFBA
:105CE000DCCF03F0F4EF16F03AEC16F004C0F3FF4B
:105CF0001200A96EB0EF16F0A6EF16F01200120017
:045D0000120012007B
:00000001FF
