:020000040000FA
:10300000A4EF1AF0AAEF1AF0B0EF1AF0BFEF1AF01F
:10301000C0EF1AF0C6EF1AF002EF1BF011EF1BF031
:10302000F2EF1AF0FAEF1AF020EF1BF0EAEF1AF0C5
:10303000E4EF1AF0CCEF1AF0D7EF1AF04AEF1DF0D8
:103040004BEF1DF04CEF1DF04DEF1DF0F1EF1AF0BE
:10305000F0EF1AF04EEF1DF04FEF1DF050EF1DF0A6
:103060001200000012000000120000001200000018
:103070001200000012000000120000001200000008
:10308000FFFFFFFFFFFFFFFFFFFFFFFFFFFFFFFF50
:10309000FFFFFFFFFFFFFFFFFFFFFFFFFFFFFFFF40
:10330000D9CFEDFFE9CFD9FF10C0EDFF11C0EDFF20
:1033100012C0EDFF13C0EDFF14C0EDFF15C0EDFFAF
:1033200016C0EDFF17C0EDFF106E020EDBCF11F0DF
:10333000D8901034126E136A146AA40E1226340E3A
:103340001322000E142212C0F6FF13C0F7FF14C0A0
:10335000F8FF0900F5CF15F0122AD8B0132AD8B01B
:10336000142A12C0F6FF13C0F7FF14C0F8FF0900BB
:10337000F5CF12F011501CE1D8901534136E146A79
:10338000800E1326000E142213C0E1FF14C0E2FFCA
:10339000E6CF16F0E7CF17F01650171030E113C044
:1033A000E1FF14C0E2FF010EE66E000EE76E10D0E2
:1033B000D8901534136E146A800E1326000E142252
:1033C00013C0E1FF14C0E2FF000EE66E000EE76ED0
:1033D00000EC16F0155024EC16F0125024EC16F008
:1033E000115002E0116A02D07F0E116E115024ECD0
:1033F00016F008EC16F010C092F000019081ECCFAE
:1034000017F0ECCF16F0ECCF15F0ECCF14F0ECCFBA
:1034100013F0ECCF12F0ECCF11F0ECCF10F0ECCFBA
:10342000D9FF1200B007B107B207B307B407B50759
:10343000B607B707BC32BC33BC34BC35B932B9337C
:10344000B934B935B832B833BB32BB33BB34BB3512
:10345000B836B837B834B835BA32BA33BA34BA3500
:10346000B838B839B01FB11FB21FB31FB41FB51F92
:10347000B61FB71FB01EB11EB21EB31EB41EB51EBE
:10348000B61EB71EB01DB11DB21DB31DB41DB51DB6
:10349000B61DB71DB01CB11CB21CB31CB41CB51CAE
:1034A000B61CB71C910691059005900690039004F8
:1034B000910491039108910790079008900A900950
:1034C0009109910A9204920393039304930693053E
:1034D000920592069308930792079208920A92091E
:1034E0009309930A95049503940394049406940510
:1034F000950595069508950794079408950A9509EA
:103500009409940A970497039603960497069705DF
:10351000960596069708970796079608960A9609BD
:103520009709970A3141494E20202044494E2020D6
:10353000444F5554000078783A7878782078787835
:10354000782078787878000003EE7FF023EE7FF023
:103550006FEF1CF003EE7FF023EE7FF0B7EF1DF06E
:1035600023EE3FF0E9CFDDFFEACFDDFF03EE3DF0D4
:10357000B6EC1DF03FC3E9FF3EC3EAFF12001200A4
:1035800003EE7FF023EE7FF052EF1CF003EE7FF0AE
:1035900023EE7FF086EF1BF003EE7FF023EE7FF04B
:1035A00005C0EDFF04C0EDFF0350D5EF1BF003EEA7
:1035B0007FF023EE7FF005C0EDFF04C0EDFF03C0F8
:1035C000EDFFED6E5FEF1DF003EE7FF023EE7FF079
:1035D000B5EF1DF003EE7FF023EE7FF058EF1DF006
:1035E0001200120003EE7FF023EE7FF004C0EDFF27
:1035F00080EF19F003EE7FF023EE7FF004C0EDFFC3
:1036000051EF1DF023EE3FF0E9CFDDFFEACFDDFF04
:1036100003EE3DF0B4EC1DF03FC3E9FF3EC3EAFF0B
:10362000120023EE3FF0E9CFDDFFEACFDDFF03EE2E
:103630003DF0B3EC1DF03FC3E9FF3EC3EAFF1200CB
:1036400003EE7FF023EE7FF005C0EDFF04C0EDFF39
:103650002AEF1BF0D9CFEDFFE9CFD9FF10C0EDFF66
:1036600011C0EDFF12C0EDFF13C0EDFF14C0EDFF60
:10367000106E00EC16F0D8901034116E240E112448
:10368000126E136A340E1322146A000E142212C032
:10369000F6FF13C0F7FF14C0F8FF0900F5CF12F0D2
:1036A000125024EC16F0126A136A240E1126340EFE
:1036B0001222000E1322112AD8B0122AD8B0132ACF
:1036C00011C0F6FF12C0F7FF13C0F8FF0900F5CFD5
:1036D00011F0115024EC16F0105038EC16F0116E69
:1036E000115024EC16F008EC16F010C091F0000117
:1036F0009081ECCF14F0ECCF13F0ECCF12F0ECCFC4
:1037000011F0ECCF10F0ECCFD9FF120010C0EDFF9C
:10371000000190B101D046D000019091400E88EC9C
:1037200016F000019129106E105090EC16F03A0E30
:1037300094EC16F00001915138EC16F0106E105018
:1037400092EC16F0470E88EC16F000019229106EEC
:10375000105092EC16F0000192515AEC16F0106ED7
:10376000105003E06F0E106E02D02A0E106E105033
:1037700094EC16F04C0E88EC16F000019329106EB4
:10378000105092EC16F0000193515EEC16F0106EA2
:10379000105003E02A0E106E02D06F0E106E105003
:1037A00094EC16F0ECCF10F01200D9CFEDFFE9CF7A
:1037B000D9FF10C0EDFF11C0EDFF12C0EDFF13C027
:1037C000EDFF106E020EDBCF11F0030EDBCF12F017
:1037D000136A1050800A01E1132A135003E11050BC
:1037E000900A13E1135001E0126A125003E0010E37
:1037F000106E01D0106A1050ED6E11506DEC1DF07E
:10380000E92A11C093F000019081ECCF13F0ECCFC6
:1038100012F0ECCF11F0ECCF10F0ECCFD9FF12008A
:10382000F66EE9CFD9FFDCCFF7FFDC50E8BE08D059
:10383000F86E0900F55003E094EC16F0FAD7120088
:10384000D9CF06F0DACF07F0F6CFD9FFF7CFDAFFFE
:10385000DE5003E094EC16F0FBD706C0D9FF07C09A
:10386000DAFF1200E9CFD9FF0A6EDCCFE1FFDCCF2F
:10387000E2FFDC52DCCF03F0DCCF04F0E6CF06F051
:10388000E6CF07F010EE06F00A50DCEC16F0E9CFB8
:10389000D9FFDCCFE1FFDCCFE2FF06C0E6FF07C0C7
:1038A000E6FF120082EC16F0000E88EC16F0000E17
:1038B000ED6E350EED6E240E10EC1CF0020EE926B6
:1038C000400E88EC16F0000EED6E350EED6E360EE5
:1038D00010EC1CF0020EE926000190811200030E8C
:1038E00014EC16F0010E80EC16F0100E78EC16F0C9
:1038F0000A0E12EC17F0000E7CEC16F0400E36ECBF
:1039000016F032EC16F0070E30EC16F01200F66EE0
:10391000E9CFD9FFDCCFF7FFDCCFF8FFDCCFE1FF49
:10392000DCCFE2FFB4EF16F0F66EE9CFD9FFDCCFC3
:10393000F7FFDCCFF8FFDCCFE1FFDCCFE2FFB6EF33
:1039400016F0036EE9CFD9FFDCCF04F0DCCFE1FF46
:10395000DCCFE2FFF2EF16F0036EE9CFD9FFDCCF48
:1039600004F0DCCFE1FFDCCFE2FF18EF17F0E9CF86
:10397000D9FFDCCFF8FFDCCFF7FFDCCFF6FF9CEF01
:1039800016F0E9CFD9FF036EDCCF04F0DCCF05F0F1
:10399000DC50A8EF16F0E9CFD9FFDCCFF6FFDCCF83
:1039A000F7FFDCCFF8FFE4EF16F0F66EE9CFD9FFB2
:1039B000DCCFF7FFDCCFF8FF9AEF16F0F66EE9CF19
:1039C000D9FFDCCFF7FFDCCFF8FF9EEF16F0F66EE5
:1039D000E9CFD9FFDCCFF7FFDCCFF8FFE6EF16F039
:1039E000F66EE9CFD9FFDCCFF7FFDCCFF8FFAAEF07
:1039F00016F0A96EE9CFD9FFDCCFE1FFDCCFE2FF03
:103A00001AEF17F0A96EE9CFD9FFDCCFE1FFDCCFC9
:103A1000E2FF1CEF17F0E9CFD9FFDCCF03F0DCCFDA
:103A200004F052EF16F0E9CFD9FFDCCF03F0DCCF82
:103A300004F074EF16F0E9CFD9FFDCCF03F0DCCF50
:103A400004F0A4EF16F0036EE9CFD9FFDCCF04F049
:103A5000DC50BAEF16F0E9CFD9FFDCCF03F0DCCFB2
:103A600004F0BCEF16F0E9CFD9FFDCCF03F0DCCFD8
:103A700004F01EEF17F0000000000000000000003E
:103A8000000000000000036EE9CFD9FFDCCF04F096
:103A9000B8EF16F01200120012001200120012000D
:103AA0001200D9CFEDFFE9CFD9FFECCFD9FF12003B
:103AB000D9CFEDFFE9CFD9FFECCFD9FF1200D9CF95
:103AC000EDFFE9CFD9FFECCFD9FF12000100763A24
:103AD00000008000000010000000E9CFD9FFDCCF1B
:103AE00003F060EF16F0E9CFD9FFDCCF03F068EF09
:103AF00016F0E9CFD9FFDCCF03F06AEF16F0E9CF7B
:103B0000D9FFDCCF03F06EEF16F0E9CFD9FFDCCFA1
:103B100003F072EF16F0E9CFD9FFDCCF03F0F6EF38
:103B200016F0E9CFD9FFDCCF03F0F8EF16F0E9CFBC
:103B3000D9FFDCCF03F0AEEF16F0A96EE9CFD9FFC5
:103B4000DC50B2EF16F0E9CFD9FFDCCF03F0F4EF91
:103B500016F03AEC16F004C0F3FF1200A96EB0EFB5
:103B600016F0A6EF16F0120012001200120012005A
:00000001FF
